{
  "contractName": "ByteArray",
  "abi": [
    {
      "inputs": [],
      "name": "b1",
      "outputs": [
        {
          "internalType": "bytes3",
          "name": "",
          "type": "bytes3"
        }
      ],
      "stateMutability": "view",
      "type": "function"
    },
    {
      "inputs": [],
      "name": "setter",
      "outputs": [],
      "stateMutability": "nonpayable",
      "type": "function"
    }
  ],
  "bytecode": "0x608060405234801561001057600080fd5b50610130806100206000396000f3fe6080604052348015600f57600080fd5b506004361060325760003560e01c80633f3108f7146037578063ee49500214603f575b600080fd5b603d6059565b005b60456097565b6040516050919060e1565b60405180910390f35b7f61626300000000000000000000000000000000000000000000000000000000006000806101000a81548162ffffff021916908360e81c0217905550565b60008054906101000a900460e81b81565b60007fffffff000000000000000000000000000000000000000000000000000000000082169050919050565b60db8160a8565b82525050565b600060208201905060f4600083018460d4565b9291505056fea26469706673582212201d2b8c355ccf15dea6814ad464aad5650670701f6c8ac2a610ec422f8f919ea164736f6c63430008110033",
  "immutableReferences": {},
  "source": "// SPDX - License - Identifier : GPL-3.0\r\n\r\npragma solidity >= 0.5.0 < 0.9.0;\r\n\r\ncontract ByteArray\r\n{\r\n    bytes3 public b1;   //3 bytes array,  contains 3 bytes = 24 bits\r\n\r\n    function setter() public\r\n    {\r\n        b1 = 'abc';\r\n    }\r\n}",
  "sourcePath": "C:\\Users\\HP\\OneDrive\\Desktop\\Solidity\\Material\\contracts\\Basics\\9_byte_array_fixed_size.sol",
  "compiler": {
    "name": "solc",
    "version": "0.8.17+commit.8df45f5f.Emscripten.clang"
  },
  "schemaVersion": "3.4.11",
  "updatedAt": "2022-12-03T21:43:06.894Z",
  "devdoc": {
    "kind": "dev",
    "methods": {},
    "version": 1
  },
  "userdoc": {
    "kind": "user",
    "methods": {},
    "version": 1
  }
}