{
  "contractName": "Conditions",
  "abi": [
    {
      "inputs": [
        {
          "internalType": "int256",
          "name": "a",
          "type": "int256"
        }
      ],
      "name": "check",
      "outputs": [
        {
          "internalType": "string",
          "name": "",
          "type": "string"
        }
      ],
      "stateMutability": "pure",
      "type": "function"
    }
  ],
  "bytecode": "0x608060405234801561001057600080fd5b50610281806100206000396000f3fe608060405234801561001057600080fd5b506004361061002b5760003560e01c80639943d66914610030575b600080fd5b61004a6004803603810190610045919061016c565b610060565b6040516100579190610229565b60405180910390f35b60608060008313156100a9576040518060400160405280600781526020017f67726561746572000000000000000000000000000000000000000000000000008152509050610128565b600083036100ee576040518060400160405280600581526020017f657175616c0000000000000000000000000000000000000000000000000000008152509050610127565b6040518060400160405280600481526020017f6c6573730000000000000000000000000000000000000000000000000000000081525090505b5b80915050919050565b600080fd5b6000819050919050565b61014981610136565b811461015457600080fd5b50565b60008135905061016681610140565b92915050565b60006020828403121561018257610181610131565b5b600061019084828501610157565b91505092915050565b600081519050919050565b600082825260208201905092915050565b60005b838110156101d35780820151818401526020810190506101b8565b60008484015250505050565b6000601f19601f8301169050919050565b60006101fb82610199565b61020581856101a4565b93506102158185602086016101b5565b61021e816101df565b840191505092915050565b6000602082019050818103600083015261024381846101f0565b90509291505056fea26469706673582212204bf06b6e16ec15376a05b729e9af2e48050517bd815bf1237edf4e6fc55aafc164736f6c63430008110033",
  "immutableReferences": {},
  "source": "// SPDX-License-Identifier: GPL-3.0\r\n\r\npragma solidity >= 0.5.0 < 0.9.0;\r\n\r\ncontract Conditions\r\n{\r\n    function check(int a) public pure returns(string memory)\r\n    {\r\n        string memory  value;\r\n\r\n        if(a>0)\r\n        {\r\n            value=\"greater\";\r\n        }\r\n        else if(a==0)\r\n        {\r\n            value=\"equal\";\r\n        }\r\n        else\r\n        {\r\n            value=\"less\";\r\n        }\r\n\r\n        return value;\r\n    }\r\n}",
  "sourcePath": "C:\\Users\\HP\\OneDrive\\Desktop\\Solidity\\Material\\contracts\\Basics\\12_ifelse.sol",
  "compiler": {
    "name": "solc",
    "version": "0.8.17+commit.8df45f5f.Emscripten.clang"
  },
  "schemaVersion": "3.4.11",
  "updatedAt": "2022-12-03T21:43:06.814Z",
  "devdoc": {
    "kind": "dev",
    "methods": {},
    "version": 1
  },
  "userdoc": {
    "kind": "user",
    "methods": {},
    "version": 1
  }
}