{
  "contractName": "DynamicArray",
  "abi": [
    {
      "inputs": [
        {
          "internalType": "uint256",
          "name": "",
          "type": "uint256"
        }
      ],
      "name": "arr",
      "outputs": [
        {
          "internalType": "uint256",
          "name": "",
          "type": "uint256"
        }
      ],
      "stateMutability": "view",
      "type": "function"
    },
    {
      "inputs": [
        {
          "internalType": "uint256",
          "name": "item",
          "type": "uint256"
        }
      ],
      "name": "pushElement",
      "outputs": [],
      "stateMutability": "nonpayable",
      "type": "function"
    },
    {
      "inputs": [],
      "name": "length",
      "outputs": [
        {
          "internalType": "uint256",
          "name": "",
          "type": "uint256"
        }
      ],
      "stateMutability": "view",
      "type": "function"
    },
    {
      "inputs": [],
      "name": "popElement",
      "outputs": [],
      "stateMutability": "nonpayable",
      "type": "function"
    }
  ],
  "bytecode": "0x608060405234801561001057600080fd5b50610242806100206000396000f3fe608060405234801561001057600080fd5b506004361061004c5760003560e01c80631f7b6d321461005157806371e5ee5f1461006f57806378321efb1461009f5780639a6fcbdd146100bb575b600080fd5b6100596100c5565b6040516100669190610164565b60405180910390f35b610089600480360381019061008491906101b0565b6100d1565b6040516100969190610164565b60405180910390f35b6100b960048036038101906100b491906101b0565b6100f5565b005b6100c3610121565b005b60008080549050905090565b600081815481106100e157600080fd5b906000526020600020016000915090505481565b600081908060018154018082558091505060019003906000526020600020016000909190919091505550565b6000805480610133576101326101dd565b5b60019003818190600052602060002001600090559055565b6000819050919050565b61015e8161014b565b82525050565b60006020820190506101796000830184610155565b92915050565b600080fd5b61018d8161014b565b811461019857600080fd5b50565b6000813590506101aa81610184565b92915050565b6000602082840312156101c6576101c561017f565b5b60006101d48482850161019b565b91505092915050565b7f4e487b7100000000000000000000000000000000000000000000000000000000600052603160045260246000fdfea264697066735822122092c00ec942b24e733dc4f28537d3ccc33044544dd633555c7cfb01c4e4a578f764736f6c63430008110033",
  "immutableReferences": {},
  "source": "// SPDX - License - Identifier : GPL-3.0\r\n\r\npragma solidity >= 0.5.0 < 0.9.0;\r\n\r\ncontract DynamicArray\r\n{\r\n    uint [] public arr;\r\n\r\n    function pushElement(uint item) public \r\n    {\r\n        arr.push(item);\r\n    }\r\n\r\n    function length() public view returns(uint)\r\n    {\r\n        return arr.length;\r\n    }\r\n\r\n    function popElement() public\r\n    {\r\n        arr.pop();\r\n    }\r\n\r\n}",
  "sourcePath": "C:\\Users\\HP\\OneDrive\\Desktop\\Solidity\\Material\\contracts\\Basics\\8_array_dynamic_size.sol",
  "compiler": {
    "name": "solc",
    "version": "0.8.17+commit.8df45f5f.Emscripten.clang"
  },
  "schemaVersion": "3.4.11",
  "updatedAt": "2022-12-03T21:43:06.784Z",
  "devdoc": {
    "kind": "dev",
    "methods": {},
    "version": 1
  },
  "userdoc": {
    "kind": "user",
    "methods": {},
    "version": 1
  }
}