{
  "contractName": "Enum",
  "abi": [
    {
      "inputs": [],
      "name": "lottery",
      "outputs": [
        {
          "internalType": "uint256",
          "name": "",
          "type": "uint256"
        }
      ],
      "stateMutability": "view",
      "type": "function"
    },
    {
      "inputs": [],
      "name": "u1",
      "outputs": [
        {
          "internalType": "enum Enum.user",
          "name": "",
          "type": "uint8"
        }
      ],
      "stateMutability": "view",
      "type": "function"
    },
    {
      "inputs": [],
      "name": "owner",
      "outputs": [],
      "stateMutability": "nonpayable",
      "type": "function"
    }
  ],
  "bytecode": "0x608060405260008060006101000a81548160ff0219169083600281111561002957610028610046565b5b02179055506103e860015534801561004057600080fd5b50610075565b7f4e487b7100000000000000000000000000000000000000000000000000000000600052602160045260246000fd5b6101e3806100846000396000f3fe608060405234801561001057600080fd5b50600436106100415760003560e01c80631aa35610146100465780638da5cb5b14610064578063ba13a5721461006e575b600080fd5b61004e61008c565b60405161005b919061015e565b60405180910390f35b61006c61009d565b005b6100766100e1565b6040516100839190610192565b60405180910390f35b60008054906101000a900460ff1681565b600060028111156100b1576100b06100e7565b5b60008054906101000a900460ff1660028111156100d1576100d06100e7565b5b036100df5760006001819055505b565b60015481565b7f4e487b7100000000000000000000000000000000000000000000000000000000600052602160045260246000fd5b60038110610127576101266100e7565b5b50565b600081905061013882610116565b919050565b60006101488261012a565b9050919050565b6101588161013d565b82525050565b6000602082019050610173600083018461014f565b92915050565b6000819050919050565b61018c81610179565b82525050565b60006020820190506101a76000830184610183565b9291505056fea26469706673582212202bd57bd6406c8e402a89afb92b4ab12716c92a7c9f7dce2dc87734976ea6f91364736f6c63430008110033",
  "immutableReferences": {},
  "source": "// SPDX-License-Identifier: GPL-3.0\r\n\r\npragma solidity >= 0.5.0 < 0.9.0;\r\n\r\ncontract Enum\r\n{\r\n    // here we are making variable of \"\"\" enum \"\"\" type\r\n    enum user{allowed, not_allowed, hold}\r\n\r\n    // here we are making variable of \"\"\" user \"\"\" type\r\n    user public u1 = user.allowed;\r\n\r\n    uint public lottery = 1000;\r\n    function owner() public\r\n    {\r\n        if(u1 == user.allowed){ lottery = 0; }\r\n\r\n    }\r\n\r\n}",
  "sourcePath": "C:\\Users\\HP\\OneDrive\\Desktop\\Solidity\\Material\\contracts\\Basics\\13_enum.sol",
  "compiler": {
    "name": "solc",
    "version": "0.8.17+commit.8df45f5f.Emscripten.clang"
  },
  "schemaVersion": "3.4.11",
  "updatedAt": "2022-12-03T21:43:06.824Z",
  "devdoc": {
    "kind": "dev",
    "methods": {},
    "version": 1
  },
  "userdoc": {
    "kind": "user",
    "methods": {},
    "version": 1
  }
}