{
  "contractName": "FixedArray",
  "abi": [
    {
      "inputs": [
        {
          "internalType": "uint256",
          "name": "",
          "type": "uint256"
        }
      ],
      "name": "arr",
      "outputs": [
        {
          "internalType": "uint256",
          "name": "",
          "type": "uint256"
        }
      ],
      "stateMutability": "view",
      "type": "function"
    },
    {
      "inputs": [
        {
          "internalType": "uint256",
          "name": "index",
          "type": "uint256"
        },
        {
          "internalType": "uint256",
          "name": "value",
          "type": "uint256"
        }
      ],
      "name": "setter",
      "outputs": [],
      "stateMutability": "nonpayable",
      "type": "function"
    },
    {
      "inputs": [],
      "name": "length",
      "outputs": [
        {
          "internalType": "uint256",
          "name": "",
          "type": "uint256"
        }
      ],
      "stateMutability": "view",
      "type": "function"
    }
  ],
  "bytecode": "0x60806040526040518060800160405280600a60ff168152602001601460ff168152602001601e60ff168152602001602860ff168152506000906004610045929190610058565b5034801561005257600080fd5b506100ba565b826004810192821561008c579160200282015b8281111561008b578251829060ff1690559160200191906001019061006b565b5b509050610099919061009d565b5090565b5b808211156100b657600081600090555060010161009e565b5090565b610229806100c96000396000f3fe608060405234801561001057600080fd5b50600436106100415760003560e01c80631f7b6d32146100465780635298f36d1461006457806371e5ee5f14610080575b600080fd5b61004e6100b0565b60405161005b919061010b565b60405180910390f35b61007e60048036038101906100799190610157565b6100b9565b005b61009a60048036038101906100959190610197565b6100d7565b6040516100a7919061010b565b60405180910390f35b60006004905090565b80600083600481106100ce576100cd6101c4565b5b01819055505050565b600081600481106100e757600080fd5b016000915090505481565b6000819050919050565b610105816100f2565b82525050565b600060208201905061012060008301846100fc565b92915050565b600080fd5b610134816100f2565b811461013f57600080fd5b50565b6000813590506101518161012b565b92915050565b6000806040838503121561016e5761016d610126565b5b600061017c85828601610142565b925050602061018d85828601610142565b9150509250929050565b6000602082840312156101ad576101ac610126565b5b60006101bb84828501610142565b91505092915050565b7f4e487b7100000000000000000000000000000000000000000000000000000000600052603260045260246000fdfea2646970667358221220adaf881a188f5f47497292fc66df357eb73584702a896d1ed9d94bf2b8ec461f64736f6c63430008110033",
  "immutableReferences": {},
  "source": "// SPDX-License - Identifier:  GPL-3.0\r\n\r\npragma solidity >= 0.5.0 < 0.9.0;\r\n\r\ncontract FixedArray\r\n{\r\n    uint [4] public arr = [10,20,30,40];\r\n\r\n    function setter(uint index, uint value) public\r\n    {\r\n        arr[index] = value;\r\n    }\r\n\r\n    function length() public view returns(uint)\r\n    {\r\n        return arr.length;\r\n    }\r\n}",
  "sourcePath": "C:\\Users\\HP\\OneDrive\\Desktop\\Solidity\\Material\\contracts\\Basics\\7_array_fixed_size.sol",
  "compiler": {
    "name": "solc",
    "version": "0.8.17+commit.8df45f5f.Emscripten.clang"
  },
  "schemaVersion": "3.4.11",
  "updatedAt": "2022-12-03T21:43:06.889Z",
  "devdoc": {
    "kind": "dev",
    "methods": {},
    "version": 1
  },
  "userdoc": {
    "kind": "user",
    "methods": {},
    "version": 1
  }
}