{
  "contractName": "Identity",
  "abi": [
    {
      "inputs": [],
      "stateMutability": "nonpayable",
      "type": "constructor"
    },
    {
      "inputs": [],
      "name": "getName",
      "outputs": [
        {
          "internalType": "string",
          "name": "",
          "type": "string"
        }
      ],
      "stateMutability": "view",
      "type": "function"
    },
    {
      "inputs": [],
      "name": "getAge",
      "outputs": [
        {
          "internalType": "uint256",
          "name": "",
          "type": "uint256"
        }
      ],
      "stateMutability": "view",
      "type": "function"
    },
    {
      "inputs": [],
      "name": "setAge",
      "outputs": [],
      "stateMutability": "nonpayable",
      "type": "function"
    }
  ],
  "bytecode": "0x608060405234801561001057600080fd5b506040518060400160405280600581526020017f536168696c0000000000000000000000000000000000000000000000000000008152506000908161005591906102b3565b506011600181905550610385565b600081519050919050565b7f4e487b7100000000000000000000000000000000000000000000000000000000600052604160045260246000fd5b7f4e487b7100000000000000000000000000000000000000000000000000000000600052602260045260246000fd5b600060028204905060018216806100e457607f821691505b6020821081036100f7576100f661009d565b5b50919050565b60008190508160005260206000209050919050565b60006020601f8301049050919050565b600082821b905092915050565b60006008830261015f7fffffffffffffffffffffffffffffffffffffffffffffffffffffffffffffffff82610122565b6101698683610122565b95508019841693508086168417925050509392505050565b6000819050919050565b6000819050919050565b60006101b06101ab6101a684610181565b61018b565b610181565b9050919050565b6000819050919050565b6101ca83610195565b6101de6101d6826101b7565b84845461012f565b825550505050565b600090565b6101f36101e6565b6101fe8184846101c1565b505050565b5b81811015610222576102176000826101eb565b600181019050610204565b5050565b601f82111561026757610238816100fd565b61024184610112565b81016020851015610250578190505b61026461025c85610112565b830182610203565b50505b505050565b600082821c905092915050565b600061028a6000198460080261026c565b1980831691505092915050565b60006102a38383610279565b9150826002028217905092915050565b6102bc82610063565b67ffffffffffffffff8111156102d5576102d461006e565b5b6102df82546100cc565b6102ea828285610226565b600060209050601f83116001811461031d576000841561030b578287015190505b6103158582610297565b86555061037d565b601f19841661032b866100fd565b60005b828110156103535784890151825560018201915060208501945060208101905061032e565b86831015610370578489015161036c601f891682610279565b8355505b6001600288020188555050505b505050505050565b61031d806103946000396000f3fe608060405234801561001057600080fd5b50600436106100415760003560e01c806317d7de7c14610046578063457676ee14610064578063967e6e651461006e575b600080fd5b61004e61008c565b60405161005b91906101ce565b60405180910390f35b61006c61011e565b005b610076610134565b6040516100839190610209565b60405180910390f35b60606000805461009b90610253565b80601f01602080910402602001604051908101604052809291908181526020018280546100c790610253565b80156101145780601f106100e957610100808354040283529160200191610114565b820191906000526020600020905b8154815290600101906020018083116100f757829003601f168201915b5050505050905090565b6001805461012c91906102b3565b600181905550565b6000600154905090565b600081519050919050565b600082825260208201905092915050565b60005b8381101561017857808201518184015260208101905061015d565b60008484015250505050565b6000601f19601f8301169050919050565b60006101a08261013e565b6101aa8185610149565b93506101ba81856020860161015a565b6101c381610184565b840191505092915050565b600060208201905081810360008301526101e88184610195565b905092915050565b6000819050919050565b610203816101f0565b82525050565b600060208201905061021e60008301846101fa565b92915050565b7f4e487b7100000000000000000000000000000000000000000000000000000000600052602260045260246000fd5b6000600282049050600182168061026b57607f821691505b60208210810361027e5761027d610224565b5b50919050565b7f4e487b7100000000000000000000000000000000000000000000000000000000600052601160045260246000fd5b60006102be826101f0565b91506102c9836101f0565b92508282019050808211156102e1576102e0610284565b5b9291505056fea26469706673582212204eaf7727a260a262219a506238de22dc8e76f7ec9f3d1a23db952d3c040ec97c64736f6c63430008110033",
  "immutableReferences": {},
  "source": "// SPDX-License-Identifier: UNLICENSED\r\n\r\npragma solidity >= 0.5.0 < 0.9.0; // it indicates that this contract is valid till 0.9.0 version of solidity language\r\n\r\ncontract Identity\r\n{\r\n    string name;\r\n    uint age; // uint = unsigned integer\r\n\r\n    // We want to assign the value inside the string and unit in the contract so for that we are making constructor\r\n    constructor() public\r\n    {\r\n        name=\"Sahil\";\r\n        age=17;\r\n    }\r\n\r\n    // To print the values inside the names and age we are making a function\r\n    function getName() view public returns(string memory)\r\n    {\r\n        return name;\r\n    }\r\n\r\n    function getAge() view public returns(uint)\r\n    {\r\n        return age;\r\n    }\r\n\r\n    // To increment the value under age variable we are making a function which is returning anything jsut modifying the value in age\r\n    function setAge() public\r\n    {\r\n        age = age+1;\r\n    }\r\n}",
  "sourcePath": "C:\\Users\\HP\\OneDrive\\Desktop\\Solidity\\Material\\contracts\\Basics\\1_identity.sol",
  "compiler": {
    "name": "solc",
    "version": "0.8.17+commit.8df45f5f.Emscripten.clang"
  },
  "schemaVersion": "3.4.11",
  "updatedAt": "2022-12-03T21:43:06.860Z",
  "devdoc": {
    "kind": "dev",
    "methods": {},
    "version": 1
  },
  "userdoc": {
    "kind": "user",
    "methods": {},
    "version": 1
  }
}