{
  "contractName": "local",
  "abi": [
    {
      "inputs": [
        {
          "internalType": "uint256",
          "name": "new_count",
          "type": "uint256"
        }
      ],
      "stateMutability": "nonpayable",
      "type": "constructor"
    },
    {
      "inputs": [],
      "name": "age",
      "outputs": [
        {
          "internalType": "uint256",
          "name": "",
          "type": "uint256"
        }
      ],
      "stateMutability": "view",
      "type": "function"
    }
  ],
  "bytecode": "0x608060405234801561001057600080fd5b5060405161016f38038061016f83398181016040528101906100329190610081565b8060008190555080600181905550506100ae565b600080fd5b6000819050919050565b61005e8161004b565b811461006957600080fd5b50565b60008151905061007b81610055565b92915050565b60006020828403121561009757610096610046565b5b60006100a58482850161006c565b91505092915050565b60b3806100bc6000396000f3fe6080604052348015600f57600080fd5b506004361060285760003560e01c8063262a9dff14602d575b600080fd5b60336047565b604051603e91906064565b60405180910390f35b60015481565b6000819050919050565b605e81604d565b82525050565b6000602082019050607760008301846057565b9291505056fea2646970667358221220dff5c0835c8505eec0f4257d98e0b018f1990662ca28f6ec5fe7c2ddc3c4f4dc64736f6c63430008110033",
  "immutableReferences": {},
  "source": "// SPDX-License-Identifier: GPL - 3.0\r\n\r\npragma solidity >= 0.5.0 < 0.9.0;\r\n\r\ncontract local\r\n{\r\n    // Step 1: This is right to assign value inside count but we'll not able to see the count button after deployment\r\n    // uint count;\r\n\r\n    // constructor()\r\n    // {\r\n    //     count = 0;\r\n        \r\n    // }\r\n\r\n    // // Step 2: Using this we can able to use button after execution\r\n    // uint public age;\r\n\r\n    // constructor()       // This is Wrong practice more than 1 constructor is not allowed\r\n    // {\r\n    //     age = 10;\r\n    // }\r\n\r\n\r\n    // Result: Right Practise \r\n\r\n    uint count;\r\n    uint public age;\r\n\r\n    // Without argument\r\n    // constructor()\r\n    // {\r\n    //     count = 10;\r\n    //     age = 100;\r\n    // }\r\n\r\n    // With argument\r\n    constructor(uint new_count)\r\n    {\r\n        count = new_count;\r\n        age = new_count;\r\n    }\r\n\r\n    \r\n}\r\n",
  "sourcePath": "C:\\Users\\HP\\OneDrive\\Desktop\\Solidity\\Material\\contracts\\Basics\\4_constructor.sol",
  "compiler": {
    "name": "solc",
    "version": "0.8.17+commit.8df45f5f.Emscripten.clang"
  },
  "schemaVersion": "3.4.11",
  "updatedAt": "2022-12-03T21:43:06.876Z",
  "devdoc": {
    "kind": "dev",
    "methods": {},
    "version": 1
  },
  "userdoc": {
    "kind": "user",
    "methods": {},
    "version": 1
  }
}