{
  "contractName": "Loops",
  "abi": [
    {
      "inputs": [
        {
          "internalType": "uint256",
          "name": "",
          "type": "uint256"
        }
      ],
      "name": "arr",
      "outputs": [
        {
          "internalType": "uint256",
          "name": "",
          "type": "uint256"
        }
      ],
      "stateMutability": "view",
      "type": "function"
    },
    {
      "inputs": [],
      "name": "count",
      "outputs": [
        {
          "internalType": "uint256",
          "name": "",
          "type": "uint256"
        }
      ],
      "stateMutability": "view",
      "type": "function"
    },
    {
      "inputs": [],
      "name": "loop",
      "outputs": [],
      "stateMutability": "nonpayable",
      "type": "function"
    }
  ],
  "bytecode": "0x608060405234801561001057600080fd5b50610275806100206000396000f3fe608060405234801561001057600080fd5b50600436106100415760003560e01c806306661abd1461004657806371e5ee5f14610064578063a92100cb14610094575b600080fd5b61004e61009e565b60405161005b9190610120565b60405180910390f35b61007e6004803603810190610079919061016c565b6100a4565b60405161008b9190610120565b60405180910390f35b61009c6100bf565b005b60035481565b600081600381106100b457600080fd5b016000915090505481565b5b600380541015610105576003546000600354600381106100e3576100e2610199565b5b0181905550600360008154809291906100fb906101f7565b91905055506100c0565b565b6000819050919050565b61011a81610107565b82525050565b60006020820190506101356000830184610111565b92915050565b600080fd5b61014981610107565b811461015457600080fd5b50565b60008135905061016681610140565b92915050565b6000602082840312156101825761018161013b565b5b600061019084828501610157565b91505092915050565b7f4e487b7100000000000000000000000000000000000000000000000000000000600052603260045260246000fd5b7f4e487b7100000000000000000000000000000000000000000000000000000000600052601160045260246000fd5b600061020282610107565b91507fffffffffffffffffffffffffffffffffffffffffffffffffffffffffffffffff8203610234576102336101c8565b5b60018201905091905056fea2646970667358221220fd97d0368af2d9d10740172fd1e4500b146f39b81ab1c793ee507d87e7662f4964736f6c63430008110033",
  "immutableReferences": {},
  "source": "// SPDX - License - Identifier: GPL-3.0\r\n\r\npragma solidity >= 0.5.0 < 0.9.0;\r\n\r\ncontract Loops\r\n{\r\n    uint [3] public arr;\r\n    uint public count;\r\n\r\n    function loop() public\r\n    {\r\n        while(count<arr.length)\r\n        {\r\n            arr[count] = count;\r\n            count++;\r\n        }\r\n    }\r\n}",
  "sourcePath": "C:\\Users\\HP\\OneDrive\\Desktop\\Solidity\\Material\\contracts\\Basics\\11_loops.sol",
  "compiler": {
    "name": "solc",
    "version": "0.8.17+commit.8df45f5f.Emscripten.clang"
  },
  "schemaVersion": "3.4.11",
  "updatedAt": "2022-12-03T21:43:06.799Z",
  "devdoc": {
    "kind": "dev",
    "methods": {},
    "version": 1
  },
  "userdoc": {
    "kind": "user",
    "methods": {},
    "version": 1
  }
}