{
  "contractName": "Mapping",
  "abi": [
    {
      "inputs": [
        {
          "internalType": "uint256",
          "name": "",
          "type": "uint256"
        }
      ],
      "name": "data",
      "outputs": [
        {
          "internalType": "string",
          "name": "name",
          "type": "string"
        },
        {
          "internalType": "uint256",
          "name": "class",
          "type": "uint256"
        }
      ],
      "stateMutability": "view",
      "type": "function"
    },
    {
      "inputs": [
        {
          "internalType": "uint256",
          "name": "_roll",
          "type": "uint256"
        },
        {
          "internalType": "string",
          "name": "_name",
          "type": "string"
        },
        {
          "internalType": "uint256",
          "name": "_class",
          "type": "uint256"
        }
      ],
      "name": "setter",
      "outputs": [],
      "stateMutability": "nonpayable",
      "type": "function"
    }
  ],
  "bytecode": "0x608060405234801561001057600080fd5b50610781806100206000396000f3fe608060405234801561001057600080fd5b50600436106100365760003560e01c80630c22cf411461003b578063f0ba844014610057575b600080fd5b61005560048036038101906100509190610313565b610088565b005b610071600480360381019061006c9190610382565b6100d7565b60405161007f92919061043d565b60405180910390f35b60405180604001604052808381526020018281525060008085815260200190815260200160002060008201518160000190816100c49190610679565b5060208201518160010155905050505050565b60006020528060005260406000206000915090508060000180546100fa9061049c565b80601f01602080910402602001604051908101604052809291908181526020018280546101269061049c565b80156101735780601f1061014857610100808354040283529160200191610173565b820191906000526020600020905b81548152906001019060200180831161015657829003601f168201915b5050505050908060010154905082565b6000604051905090565b600080fd5b600080fd5b6000819050919050565b6101aa81610197565b81146101b557600080fd5b50565b6000813590506101c7816101a1565b92915050565b600080fd5b600080fd5b6000601f19601f8301169050919050565b7f4e487b7100000000000000000000000000000000000000000000000000000000600052604160045260246000fd5b610220826101d7565b810181811067ffffffffffffffff8211171561023f5761023e6101e8565b5b80604052505050565b6000610252610183565b905061025e8282610217565b919050565b600067ffffffffffffffff82111561027e5761027d6101e8565b5b610287826101d7565b9050602081019050919050565b82818337600083830152505050565b60006102b66102b184610263565b610248565b9050828152602081018484840111156102d2576102d16101d2565b5b6102dd848285610294565b509392505050565b600082601f8301126102fa576102f96101cd565b5b813561030a8482602086016102a3565b91505092915050565b60008060006060848603121561032c5761032b61018d565b5b600061033a868287016101b8565b935050602084013567ffffffffffffffff81111561035b5761035a610192565b5b610367868287016102e5565b9250506040610378868287016101b8565b9150509250925092565b6000602082840312156103985761039761018d565b5b60006103a6848285016101b8565b91505092915050565b600081519050919050565b600082825260208201905092915050565b60005b838110156103e95780820151818401526020810190506103ce565b60008484015250505050565b6000610400826103af565b61040a81856103ba565b935061041a8185602086016103cb565b610423816101d7565b840191505092915050565b61043781610197565b82525050565b6000604082019050818103600083015261045781856103f5565b9050610466602083018461042e565b9392505050565b7f4e487b7100000000000000000000000000000000000000000000000000000000600052602260045260246000fd5b600060028204905060018216806104b457607f821691505b6020821081036104c7576104c661046d565b5b50919050565b60008190508160005260206000209050919050565b60006020601f8301049050919050565b600082821b905092915050565b60006008830261052f7fffffffffffffffffffffffffffffffffffffffffffffffffffffffffffffffff826104f2565b61053986836104f2565b95508019841693508086168417925050509392505050565b6000819050919050565b600061057661057161056c84610197565b610551565b610197565b9050919050565b6000819050919050565b6105908361055b565b6105a461059c8261057d565b8484546104ff565b825550505050565b600090565b6105b96105ac565b6105c4818484610587565b505050565b5b818110156105e8576105dd6000826105b1565b6001810190506105ca565b5050565b601f82111561062d576105fe816104cd565b610607846104e2565b81016020851015610616578190505b61062a610622856104e2565b8301826105c9565b50505b505050565b600082821c905092915050565b600061065060001984600802610632565b1980831691505092915050565b6000610669838361063f565b9150826002028217905092915050565b610682826103af565b67ffffffffffffffff81111561069b5761069a6101e8565b5b6106a5825461049c565b6106b08282856105ec565b600060209050601f8311600181146106e357600084156106d1578287015190505b6106db858261065d565b865550610743565b601f1984166106f1866104cd565b60005b82811015610719578489015182556001820191506020850194506020810190506106f4565b868310156107365784890151610732601f89168261063f565b8355505b6001600288020188555050505b50505050505056fea2646970667358221220ebb6c976aff47f9ab1d9907787f06d86d0a79d120592c71c151d4b8abae5baa264736f6c63430008110033",
  "immutableReferences": {},
  "source": "// SPDX-License-Identifier: GPL-3.0\r\n\r\npragma solidity >= 0.5.0 < 0.9.0;\r\n\r\ncontract Mapping\r\n{\r\n    struct Student\r\n    {\r\n        string name;\r\n        uint class;\r\n    }\r\n\r\n    mapping(uint => Student) public data;\r\n\r\n    function setter(uint _roll, string memory _name, uint _class) public\r\n    {\r\n        data[_roll] = Student(_name, _class);\r\n    }\r\n}",
  "sourcePath": "C:\\Users\\HP\\OneDrive\\Desktop\\Solidity\\Material\\contracts\\Basics\\16_mapping_struct.sol",
  "compiler": {
    "name": "solc",
    "version": "0.8.17+commit.8df45f5f.Emscripten.clang"
  },
  "schemaVersion": "3.4.11",
  "updatedAt": "2022-12-03T21:43:06.845Z",
  "devdoc": {
    "kind": "dev",
    "methods": {},
    "version": 1
  },
  "userdoc": {
    "kind": "user",
    "methods": {},
    "version": 1
  }
}