{
  "contractName": "overflow",
  "abi": [
    {
      "inputs": [],
      "name": "money",
      "outputs": [
        {
          "internalType": "uint8",
          "name": "",
          "type": "uint8"
        }
      ],
      "stateMutability": "view",
      "type": "function"
    },
    {
      "inputs": [],
      "name": "setter",
      "outputs": [],
      "stateMutability": "nonpayable",
      "type": "function"
    }
  ],
  "bytecode": "0x6080604052600a6000806101000a81548160ff021916908360ff16021790555034801561002b57600080fd5b5061017a8061003b6000396000f3fe608060405234801561001057600080fd5b50600436106100365760003560e01c80633f3108f71461003b5780634ddd108a14610045575b600080fd5b610043610063565b005b61004d610098565b60405161005a91906100c5565b60405180910390f35b600160008054906101000a900460ff1661007d919061010f565b6000806101000a81548160ff021916908360ff160217905550565b60008054906101000a900460ff1681565b600060ff82169050919050565b6100bf816100a9565b82525050565b60006020820190506100da60008301846100b6565b92915050565b7f4e487b7100000000000000000000000000000000000000000000000000000000600052601160045260246000fd5b600061011a826100a9565b9150610125836100a9565b9250828201905060ff81111561013e5761013d6100e0565b5b9291505056fea26469706673582212208e71a3c65a3a3dc6b02f1bde3b67bb8e11213e3ff22f549742c5dc77ce2ba6b064736f6c63430008110033",
  "immutableReferences": {},
  "source": "// SPDX-License-Identifier: GPL - 3.0\r\n\r\n// Overflow problem in solidity was arrived in 2018 ERC version so we are using the older version of solidity\r\n\r\n// pragma solidity 0.5.0 ;\r\n\r\npragma solidity 0.8.17;\r\n\r\ncontract overflow\r\n{\r\n    uint8 public money = 10;\r\n\r\n    function setter() public \r\n    {\r\n        money = money + 1;\r\n    }\r\n}",
  "sourcePath": "C:\\Users\\HP\\OneDrive\\Desktop\\Solidity\\Material\\contracts\\Basics\\6_overflow_and_underflow.sol",
  "compiler": {
    "name": "solc",
    "version": "0.8.17+commit.8df45f5f.Emscripten.clang"
  },
  "schemaVersion": "3.4.11",
  "updatedAt": "2022-12-03T21:43:06.884Z",
  "devdoc": {
    "kind": "dev",
    "methods": {},
    "version": 1
  },
  "userdoc": {
    "kind": "user",
    "methods": {},
    "version": 1
  }
}