{
  "contractName": "School",
  "abi": [
    {
      "inputs": [
        {
          "internalType": "uint256",
          "name": "_roll",
          "type": "uint256"
        },
        {
          "internalType": "string",
          "name": "_name",
          "type": "string"
        }
      ],
      "stateMutability": "nonpayable",
      "type": "constructor"
    },
    {
      "inputs": [],
      "name": "s1",
      "outputs": [
        {
          "internalType": "uint256",
          "name": "roll",
          "type": "uint256"
        },
        {
          "internalType": "string",
          "name": "name",
          "type": "string"
        }
      ],
      "stateMutability": "view",
      "type": "function"
    }
  ],
  "bytecode": "0x608060405234801561001057600080fd5b506040516107ac3803806107ac83398181016040528101906100329190610200565b816000800181905550806000600101908161004d9190610473565b505050610545565b6000604051905090565b600080fd5b600080fd5b6000819050919050565b61007c81610069565b811461008757600080fd5b50565b60008151905061009981610073565b92915050565b600080fd5b600080fd5b6000601f19601f8301169050919050565b7f4e487b7100000000000000000000000000000000000000000000000000000000600052604160045260246000fd5b6100f2826100a9565b810181811067ffffffffffffffff82111715610111576101106100ba565b5b80604052505050565b6000610124610055565b905061013082826100e9565b919050565b600067ffffffffffffffff8211156101505761014f6100ba565b5b610159826100a9565b9050602081019050919050565b60005b83811015610184578082015181840152602081019050610169565b60008484015250505050565b60006101a361019e84610135565b61011a565b9050828152602081018484840111156101bf576101be6100a4565b5b6101ca848285610166565b509392505050565b600082601f8301126101e7576101e661009f565b5b81516101f7848260208601610190565b91505092915050565b600080604083850312156102175761021661005f565b5b60006102258582860161008a565b925050602083015167ffffffffffffffff81111561024657610245610064565b5b610252858286016101d2565b9150509250929050565b600081519050919050565b7f4e487b7100000000000000000000000000000000000000000000000000000000600052602260045260246000fd5b600060028204905060018216806102ae57607f821691505b6020821081036102c1576102c0610267565b5b50919050565b60008190508160005260206000209050919050565b60006020601f8301049050919050565b600082821b905092915050565b6000600883026103297fffffffffffffffffffffffffffffffffffffffffffffffffffffffffffffffff826102ec565b61033386836102ec565b95508019841693508086168417925050509392505050565b6000819050919050565b600061037061036b61036684610069565b61034b565b610069565b9050919050565b6000819050919050565b61038a83610355565b61039e61039682610377565b8484546102f9565b825550505050565b600090565b6103b36103a6565b6103be818484610381565b505050565b5b818110156103e2576103d76000826103ab565b6001810190506103c4565b5050565b601f821115610427576103f8816102c7565b610401846102dc565b81016020851015610410578190505b61042461041c856102dc565b8301826103c3565b50505b505050565b600082821c905092915050565b600061044a6000198460080261042c565b1980831691505092915050565b60006104638383610439565b9150826002028217905092915050565b61047c8261025c565b67ffffffffffffffff811115610495576104946100ba565b5b61049f8254610296565b6104aa8282856103e6565b600060209050601f8311600181146104dd57600084156104cb578287015190505b6104d58582610457565b86555061053d565b601f1984166104eb866102c7565b60005b82811015610513578489015182556001820191506020850194506020810190506104ee565b86831015610530578489015161052c601f891682610439565b8355505b6001600288020188555050505b505050505050565b610258806105546000396000f3fe608060405234801561001057600080fd5b506004361061002b5760003560e01c80636cc014de14610030575b600080fd5b61003861004f565b604051610046929190610192565b60405180910390f35b6000806000015490806001018054610066906101f1565b80601f0160208091040260200160405190810160405280929190818152602001828054610092906101f1565b80156100df5780601f106100b4576101008083540402835291602001916100df565b820191906000526020600020905b8154815290600101906020018083116100c257829003601f168201915b5050505050905082565b6000819050919050565b6100fc816100e9565b82525050565b600081519050919050565b600082825260208201905092915050565b60005b8381101561013c578082015181840152602081019050610121565b60008484015250505050565b6000601f19601f8301169050919050565b600061016482610102565b61016e818561010d565b935061017e81856020860161011e565b61018781610148565b840191505092915050565b60006040820190506101a760008301856100f3565b81810360208301526101b98184610159565b90509392505050565b7f4e487b7100000000000000000000000000000000000000000000000000000000600052602260045260246000fd5b6000600282049050600182168061020957607f821691505b60208210810361021c5761021b6101c2565b5b5091905056fea264697066735822122013fbd070ea57c449f23061a404edf73e5d9a9d343c94b5d76a89c8beb9da8cf864736f6c63430008110033",
  "immutableReferences": {},
  "source": "// SPDX-License-Identifier: GPL-3.0\r\n\r\npragma solidity >= 0.5.1 < 0.9.0;\r\n\r\nstruct Student\r\n{\r\n    uint roll;\r\n    string name;\r\n}\r\n\r\ncontract School\r\n{\r\n    Student public s1;\r\n    constructor (uint _roll, string memory _name)\r\n    {\r\n        s1.roll = _roll;\r\n        s1.name = _name;\r\n    }\r\n}",
  "sourcePath": "C:\\Users\\HP\\OneDrive\\Desktop\\Solidity\\Material\\contracts\\Basics\\14_structure.sol",
  "compiler": {
    "name": "solc",
    "version": "0.8.17+commit.8df45f5f.Emscripten.clang"
  },
  "schemaVersion": "3.4.11",
  "updatedAt": "2022-12-03T21:43:06.833Z",
  "devdoc": {
    "kind": "dev",
    "methods": {},
    "version": 1
  },
  "userdoc": {
    "kind": "user",
    "methods": {},
    "version": 1
  }
}