{
  "contractName": "state",
  "abi": [
    {
      "inputs": [],
      "stateMutability": "nonpayable",
      "type": "constructor"
    },
    {
      "inputs": [],
      "name": "age",
      "outputs": [
        {
          "internalType": "uint256",
          "name": "",
          "type": "uint256"
        }
      ],
      "stateMutability": "view",
      "type": "function"
    },
    {
      "inputs": [],
      "name": "setAge",
      "outputs": [],
      "stateMutability": "nonpayable",
      "type": "function"
    }
  ],
  "bytecode": "0x608060405234801561001057600080fd5b50606460008190555060cf806100276000396000f3fe6080604052348015600f57600080fd5b506004361060325760003560e01c8063262a9dff146037578063457676ee146051575b600080fd5b603d6059565b604051604891906080565b60405180910390f35b6057605f565b005b60005481565b60c8600081905550565b6000819050919050565b607a816069565b82525050565b6000602082019050609360008301846073565b9291505056fea2646970667358221220f01a354cccf4a51dda8c2ba7db9bb3ed9a74a4225a0d9c96e118905ab6f9225e64736f6c63430008110033",
  "immutableReferences": {},
  "source": "// SPDX-License-Identifier: GPL-3.0\r\n\r\npragma solidity >= 0.5.0 < 0.9.0;\r\n\r\ncontract state\r\n{\r\n    // The variable which is declare inside the contract itself are called as state variables\r\n    // State variable is stored inside blockchain itself directly\r\n    // If we increase the state variable then we need to pay more gas fees\r\n\r\n//  unit age;           if I'm not using public then I'm not able to call the age unsigned variable\r\n    uint public age; // if we want to call the age variable then we have to use the public variable \r\n    \r\n    // age = 10;   ---> Error, can't initialize state variable like this if you want to initialize then do it in the begining \r\n    // OR   make a CONSTRUCTOR\r\n    constructor () public\r\n    {\r\n        age = 100;\r\n    }\r\n    // Or make a get function\r\n    function setAge() public\r\n    {\r\n        age = 200;\r\n    }\r\n\r\n}",
  "sourcePath": "C:\\Users\\HP\\OneDrive\\Desktop\\Solidity\\Material\\contracts\\Basics\\2_statevariable.sol",
  "compiler": {
    "name": "solc",
    "version": "0.8.17+commit.8df45f5f.Emscripten.clang"
  },
  "schemaVersion": "3.4.11",
  "updatedAt": "2022-12-03T21:43:06.871Z",
  "devdoc": {
    "kind": "dev",
    "methods": {},
    "version": 1
  },
  "userdoc": {
    "kind": "user",
    "methods": {},
    "version": 1
  }
}